:100000000C9434000C94C4030C94AA030C94DF02E7
:100010000C9444030C9451000C9451000C946B020A
:100020000C9456020C9451000C9451000C949402C0
:100030000C9451000C9480020C94B5020C94A8020C
:100040000C940C020C9451000C9451000C9451002F
:100050000C9451000C9451000C9451000C945100DC
:100060000C9451000C94510011241FBECFEFD8E026
:10007000DEBFCDBF21E0A0E1B1E001C01D92A936F5
:10008000B207E1F711E0A0E0B1E0E0EAF1E102C07F
:1000900005900D92A031B107D9F70E9429040C9464
:1000A000CE080C94000087E480937C0080917A0055
:1000B000806480937A0080917A0086FDFCCF8091E5
:1000C00078002091790090E0922B0895CF92DF92F2
:1000D000EF92FF9290914901911113C04091590103
:1000E00050915A0160915B0170915C014093450110
:1000F00050934601609347017093480191E09093BB
:1001000049014091590150915A0160915B017091F0
:100110005C01C0904501D0904601E0904701F0900D
:1001200048014C195D096E097F094B305105610585
:100130007105F0F1C0900401D0900501E090060136
:10014000F0900701682F70E080E090E00E945C076B
:10015000A70196010E94BE0660934101709342017F
:10016000809343019093440128EB3EE145E85DE331
:100170000E94E8079B01AC01C701B6010E94BF06BF
:100180006093040170930501809306019093070129
:100190008091590190915A01A0915B01B0915C014D
:1001A0008093450190934601A0934701B093480185
:1001B000109240018091B00080638093B0002C9831
:1001C0002B9880916F00836080936F006091040191
:1001D0007091050180910601909107010E942B0703
:1001E0007093890060938800FF90EF90DF90CF902C
:1001F0000895CF92DF92EF92FF9290913801911182
:1002000013C04091590150915A0160915B01709166
:100210005C01409334015093350160933601709333
:10022000370191E0909338014091590150915A0162
:1002300060915B0170915C01C0903401D0903501F8
:10024000E0903601F09037014C195D096E097F0985
:100250004B30510561057105F0F1C0900001D0905F
:100260000101E0900201F0900301682F70E080E04E
:1002700090E00E945C07A70196010E94BE06609371
:10028000300170933101809332019093330128EB58
:100290003EE145E85DE30E94E8079B01AC01C70130
:1002A000B6010E94BF066093000170930101809324
:1002B0000201909303018091590190915A01A091FC
:1002C0005B01B0915C018093340190933501A09360
:1002D0003601B093370181E0809340018091B000F6
:1002E00080688093B0005D985B9880916F00836018
:1002F00080936F0060910001709101018091020173
:10030000909103010E942B077093890060938800ED
:10031000FF90EF90DF90CF900895E0EBF0E08081C8
:100320008F70808310926F002C9A2B985D9A5B9847
:10033000089580912F018823C1F010922F018091A0
:100340002B0190912C01A0912D01B0912E018135AE
:1003500023EC920728F490932A01809329010FC07F
:1003600010922A01109229010AC08091280183333A
:1003700030F010922A0110922901109228018091E8
:10038000290190912A0108950F931F93009159011B
:1003900010915A0120915B0130915C01A0E0B0E026
:1003A0004091590150915A0160915B0170915C013B
:1003B000401B510B620B730B84179507A607B707F9
:1003C00078F71F910F91089580915E0190915F01E0
:1003D000843F9140E8F40E949901883E934040F0A8
:1003E0000E949901813D974030F40E94990105C017
:1003F00088EE93E002C080ED97E090935F018093D8
:100400005E01289A0E948D0182E390E00E94C4015F
:10041000289808950C9455081F920F920FB60F92CA
:1004200011242F933F938F939F93AF93BF9380910A
:10043000650190916601A0916701B09168013091CA
:10044000640123E0230F2D3720F40196A11DB11D77
:1004500005C026E8230F0296A11DB11D209364015B
:100460008093650190936601A0936701B093680142
:100470008091600190916101A0916201B09163014E
:100480000196A11DB11D8093600190936101A0931D
:100490006201B0936301BF91AF919F918F913F91A2
:1004A0002F910F900FBE0F901F90189578941F9268
:1004B0000F920FB60F9211248F932C9880914001C8
:1004C000811102C05B9801C02B988F910F900FBED5
:1004D0000F901F90189578941F920F920FB60F925D
:1004E00011248F932C9880914001811102C05B9A56
:1004F00001C02B9A8F910F900FBE0F901F901895EF
:1005000078941F920F920FB60F9211248F938091BF
:100510004001811102C05D9A01C02C9A8F910F9009
:100520000FBE0F901F90189578941F920F920FB6E0
:100530000F9211248F9380914001811102C05D9828
:1005400001C02C988F910F900FBE0F901F9018959F
:1005500078941F920F920FB60F9211242C9A5D9AE5
:100560000F900FBE0F901F9018951F920F920FB60D
:100570000F9211248F939F93AF93BF938091590152
:1005800090915A01A0915B01B0915C010196A11D6F
:10059000B11D8093590190935A01A0935B01B093D0
:1005A0005C01809128018F5F80932801BF91AF91FA
:1005B0009F918F910F900FBE0F901F9018951F92D3
:1005C0000F920FB60F921124CF92DF92EF92FF920B
:1005D0002F933F934F935F936F937F938F939F934B
:1005E000AF93BF932091590130915A0140915B0123
:1005F00050915C0166B584E0689FB00111246B01E5
:10060000770FEE08FF08A8EEB3E00E948A08DC012D
:10061000CB018C0D9D1DAE1DBF1D1C9B09C0809381
:10062000240190932501A0932601B093270119C0BE
:10063000C0902401D0902501E0902601F090270180
:100640008C199D09AE09BF09809320019093210167
:10065000A0932201B093230181E080931F011092A7
:100660001E01BF91AF919F918F917F916F915F918B
:100670004F913F912F91FF90EF90DF90CF900F908F
:100680000FBE0F901F90189578941F920F920FB67F
:100690000F921124CF92DF92EF92FF922F933F930C
:1006A0004F935F936F937F938F939F93AF93BF937A
:1006B0002091590130915A0140915B0150915C01A8
:1006C00066B584E0689FB00111246B01770FEE08D6
:1006D000FF08A8EEB3E00E948A08DC01CB018C0D74
:1006E0009D1DAE1DBF1D309B09C080931A019093C4
:1006F0001B01A0931C01B0931D0119C0C0901A01E9
:10070000D0901B01E0901C01F0901D018C199D09F7
:10071000AE09BF0980932B0190932C01A0932D016A
:10072000B0932E0181E080932F0110922801BF9198
:10073000AF919F918F917F916F915F914F913F9179
:100740002F91FF90EF90DF90CF900F900FBE0F9002
:100750001F9018951F920F920FB60F9211248F932E
:10076000EF93FF93229A2A9886B58F5F88BDEEE6B5
:10077000F0E0808184608083FF91EF918F910F90F2
:100780000FBE0F901F9018951F920F920FB60F92E9
:100790001124CF92DF92EF92FF922F933F934F93CA
:1007A0005F936F937F938F939F93AF93BF932091AA
:1007B000590130915A0140915B0150915C0166B53D
:1007C00084E0689FB00111246B01770FEE08FF08E9
:1007D000A8EEB3E00E948A08DC01CB018C0D9D1DC0
:1007E000AE1DBF1D4A9B09C080931601909317014F
:1007F000A0931801B093190119C0C0901601D090B0
:100800001701E0901801F09019018C199D09AE09AB
:10081000BF098093120190931301A0931401B09328
:10082000150181E08093110110921001BF91AF91E9
:100830009F918F917F916F915F914F913F912F91F8
:10084000FF90EF90DF90CF900F900FBE0F901F9012
:100850001895CF93DF9300D000D000D0CDB7DEB78E
:10086000789484B5826084BD84B5816084BD85B58B
:10087000826085BD85B5816085BD80916E00816097
:1008800080936E001092810080918100826080933D
:10089000810080918100816080938100809180003F
:1008A0008160809380008091B10084608093B1006A
:1008B0008091B00081608093B00080917A00846064
:1008C00080937A0080917A00826080937A00809190
:1008D0007A00816080937A0080917A0080688093AA
:1008E0007A001092C10014BC15BC10926E0085B540
:1008F000836085BD84B5826084BD89EF87BD8091AA
:100900006E00826080936E003898409A80916800F3
:1009100082608093680080916C00816080936C009D
:100920008AEF90E00E940A02282F30E0A0EDB7E0A5
:100930000E94BF08C12CD12C7601CA94A701960150
:100940000E946B0830935601209355018FEF90E081
:100950000E940A02282F30E0A0EDB7E00E94BF08F5
:10096000A70196010E946B0830935801209357010C
:1009700084E091E00E940A02282F30E0A0EDB7E069
:100980000E94BF08A70196010E946B083093520194
:100990002093510189E091E00E940A02282F30E063
:1009A000A0EDB7E00E94BF08A70196010E946B0866
:1009B0003093540120935301559A5D98249A2C98B2
:1009C000539A5B98239A2B981092B0001092B10022
:1009D0008091B10084608093B1008091B000836009
:1009E0008093B0008EEF8093B3008091840090914B
:1009F00085008F5F8093B20010928000109281007A
:100A00008091810088608093810080918000816066
:100A10008093800080918100836080938100209A80
:100A20000E94990190935F0180935E01209A289A19
:100A300088EE93E00E94C40138EE432E33E0532E3B
:100A4000612C712C40EDC42E47E0D42EE12CF12C0A
:100A500052EC852E99249394A12CB12C00E213E042
:100A600060ED262E67E0362E0E94990190935F017B
:100A700080935E010E945300892B09F0ABC00E9455
:100A80008D0128980E94E40123E030E0289A84E652
:100A900090E02D833E830E94C401289884E690E074
:100AA0000E94C4012D813E812150310979F71093B4
:100AB000580100935701309256012092550110932E
:100AC000540100935301309252012092510120E0D1
:100AD00030E02D833E830E94990190935F018093C3
:100AE0005E012D813E812A3F310514F4289A01C010
:100AF00028988FE090E02D833E830E94C4012D81D1
:100B00003E812F5F3F4F2E3581E0380711F720914E
:100B1000550130915601AFEFB0E00E94BF0861155A
:100B200020ED720727E08207910534F4A7019601B2
:100B30000E946B08622F01C06FEF8AEF90E00E9465
:100B40005D082091570130915801AFEFB0E00E944D
:100B5000BF08611520ED720727E08207910534F484
:100B6000A70196010E946B08622F01C06FEF8FEF03
:100B700090E00E945D0823E030E0289A84E690E04F
:100B80002D833E830E94C401289884E690E00E9451
:100B9000C4012D813E812150310979F70E94530013
:100BA000892BB9F46091590170915A0180915B01D0
:100BB00090915C01A30192010E949D08672B682B14
:100BC000692B61F7289A82E390E00E94C40128987B
:100BD000E5CF28980E94E40120915E0130915F01E9
:100BE000283E83E0380738F0213D97E0390728F0A8
:100BF00020ED37E002C028EE33E030935F01209310
:100C00005E0180910A0190910B018217930720F4F5
:100C100030930B0120930A01809108019091090102
:100C20002817390720F430930901209308012F3049
:100C300086E0380708F449C080915D01823061F593
:100C40004091590150915A0160915B0170915C0192
:100C50008FEF2D833E8349835A836B837C830E946D
:100C600066008091590190915A01A0915B01B09169
:100C70005C0149815A816B817C81841B950BA60B99
:100C8000B70B2D813E8187399105A105B10500F390
:100C90000E948D013E812D81C901A0E0B0E09C0140
:100CA000AD012E50364041095109A1E0BFEF0E942D
:100CB0009808A50194010E946B088FEF820F0E9493
:100CC000F90081E080935D0151C02A3A95E039072F
:100CD00008F048C080915D01813061F54091590173
:100CE00050915A0160915B0170915C018FEF2D83EF
:100CF0003E8349835A836B837C830E94F9008091F1
:100D0000590190915A01A0915B01B0915C01498118
:100D10005A816B817C81841B950BA60BB70B2D81AF
:100D20003E8187399105A105B10500F30E948D012F
:100D30003E812D81C901A0E0B0E09C01AD01285E9B
:100D4000334041095109AFEFB0E00E948A08A50184
:100D500094010E946B08822F0E94660022E020937B
:100D60005D0104C00E948D0110925D0180E090E061
:100D7000892B09F479CE0E94000076CE5058BB270B
:100D8000AA270E94D6060C94AE070E94A00738F04E
:100D90000E94A70720F039F49F3F19F426F40C9421
:100DA0009D070EF4E095E7FB0C949707E92F0E944E
:100DB000BF0758F3BA17620773078407950720F037
:100DC00079F4A6F50C94E1070EF4E0950B2EBA2FFA
:100DD000A02D0B01B90190010C01CA01A001112441
:100DE000FF27591B99F0593F50F4503E68F11A16ED
:100DF000F040A22F232F342F4427585FF3CF46957E
:100E000037952795A795F0405395C9F77EF41F169F
:100E1000BA0B620B730B840BBAF09150A1F0FF0F69
:100E2000BB1F661F771F881FC2F70EC0BA0F621F55
:100E3000731F841F48F4879577956795B795F79545
:100E40009E3F08F0B0CF9395880F08F09927EE0FDA
:100E50009795879508950E94C70788F09F5798F047
:100E6000B92F9927B751B0F0E1F0660F771F881FAF
:100E7000991F1AF0BA95C9F714C0B13091F00E94C9
:100E8000E107B1E008950C94E107672F782F8827D8
:100E9000B85F39F0B93FCCF3869577956795B395F0
:100EA000D9F73EF490958095709561957F4F8F4F5F
:100EB0009F4F0895E89409C097FB3EF49095809564
:100EC000709561957F4F8F4F9F4F9923A9F0F92F10
:100ED00096E9BB279395F695879577956795B7958E
:100EE000F111F8CFFAF4BB0F11F460FF1BC06F5F74
:100EF0007F4F8F4F9F4F16C0882311F096E911C086
:100F0000772321F09EE8872F762F05C0662371F0A6
:100F100096E8862F70E060E02AF09A95660F771FBA
:100F2000881FDAF7880F9695879597F9089597F9AE
:100F30009F6780E870E060E008959FEF80EC08957F
:100F400000240A94161617061806090608950024A8
:100F50000A9412161306140605060895092E039422
:100F6000000C11F4882352F0BB0F40F4BF2B11F496
:100F700060FF04C06F5F7F4F8F4F9F4F089557FDF5
:100F80009058440F551F59F05F3F71F04795880FF7
:100F900097FB991F61F09F3F79F08795089512168E
:100FA00013061406551FF2CF4695F1DF08C016163A
:100FB00017061806991FF1CF8695710561050894EB
:100FC0000895E894BB2766277727CB0197F9089502
:100FD0000E94FB070C94AE070E94A00738F00E9405
:100FE000A70720F0952311F00C9497070C949D0708
:100FF00011240C94E2070E94BF0770F3959FC1F380
:10100000950F50E0551F629FF001729FBB27F00DB6
:10101000B11D639FAA27F00DB11DAA1F649F66270B
:10102000B00DA11D661F829F2227B00DA11D621F5A
:10103000739FB00DA11D621F839FA00D611D221F14
:10104000749F3327A00D611D231F849F600D211DF8
:10105000822F762F6A2F11249F5750409AF0F1F07B
:1010600088234AF0EE0FFF1FBB1F661F771F881FE4
:1010700091505040A9F79E3F510580F00C9497077E
:101080000C94E2075F3FE4F3983ED4F3869577959E
:101090006795B795F795E7959F5FC1F7FE2B880F8A
:1010A000911D9695879597F90895F999FECF92BD70
:1010B00081BDF89A992780B50895262FF999FECF1A
:1010C0001FBA92BD81BD20BD0FB6F894FA9AF99A65
:1010D0000FBE01960895052E97FB1EF400940E9402
:1010E000820857FD07D00E949D0807FC03D04EF4EC
:1010F0000C94820850954095309521953F4F4F4F65
:101100005F4F089590958095709561957F4F8F4FB3
:101110009F4F08950E94BF08A59F900DB49F900D0A
:10112000A49F800D911D11240895B7FF0C948A0887
:101130000E948A08821B930B0895A1E21A2EAA1B13
:10114000BB1BFD010DC0AA1FBB1FEE1FFF1FA21777
:10115000B307E407F50720F0A21BB30BE40BF50B74
:10116000661F771F881F991F1A9469F760957095FD
:10117000809590959B01AC01BD01CF010895A29F80
:10118000B001B39FC001A39F700D811D1124911D5B
:10119000B29F700D811D1124911D0895F894FFCF09
:1011A00000007F4300007F43B0046C070100000093
:107800000C94343C0C94513C0C94513C0C94513CE1
:107810000C94513C0C94513C0C94513C0C94513CB4
:107820000C94513C0C94513C0C94513C0C94513CA4
:107830000C94513C0C94513C0C94513C0C94513C94
:107840000C94513C0C94513C0C94513C0C94513C84
:107850000C94513C0C94513C0C94513C0C94513C74
:107860000C94513C0C94513C11241FBECFEFD8E036
:10787000DEBFCDBF11E0A0E0B1E0ECE9FFE702C060
:1078800005900D92A230B107D9F712E0A2E0B1E065
:1078900001C01D92AD30B107E1F70E942D3D0C945F
:1078A000CC3F0C94003C982F959595959595959582
:1078B000905D8F708A307CF0282F295A8091C0000B
:1078C00085FFFCCF9093C6008091C00085FFFCCF60
:1078D0002093C6000895282F205DF0CF982F809127
:1078E000C00085FFFCCF9093C6000895EF92FF92F1
:1078F0000F931F93EE24FF2487018091C00087FD22
:1079000017C00894E11CF11C011D111D81E4E8164B
:1079100082E4F8068FE0080780E0180770F3E09132
:107920000401F091050109958091C00087FFE9CF1E
:107930008091C6001F910F91FF90EF9008950E94D3
:10794000763C982F8091C00085FFFCCF9093C600B5
:1079500091362CF490330CF09053892F089597555D
:10796000892F08951F930E949F3C182F0E949F3CCF
:107970001295107F810F1F9108951F93182F882350
:1079800021F00E94763C1150E1F71F9108951F935A
:10799000182F0E94763C803249F0809103018F5F5E
:1079A000809303018530C1F01F9108958091C0003C
:1079B00085FFFCCF84E18093C6008091C00085FFE5
:1079C000FCCF1093C6008091C00085FFFCCF80E102
:1079D0008093C6001F910895E0910401F091050184
:1079E00009951F9108950E94763C803241F0809164
:1079F00003018F5F80930301853081F008958091AA
:107A0000C00085FFFCCF84E18093C6008091C00058
:107A100085FFFCCF80E18093C6000895E0910401CA
:107A2000F09105010995089540E951E08823A1F0FE
:107A30002D9A28EE33E0FA013197F1F721503040CA
:107A4000D1F72D9828EE33E0FA013197F1F7215064
:107A50003040D1F7815061F708953F924F925F9285
:107A60006F927F928F929F92AF92BF92CF92DF924E
:107A7000EF92FF920F931F93CF93DF93000080E16B
:107A80008093C4001092C50088E18093C10086E015
:107A90008093C2005098589A259A81E00E94143D24
:107AA00024E1F22E9EE1E92E85E9D82E0FE0C02ECA
:107AB00010E1B12EAA24A394B1E49B2EA6E58A2E50
:107AC000F2E57F2EE0E26E2E79E4572E63E5462E36
:107AD00050E5352E0E94763C8033B1F18133B9F107
:107AE000803409F46FC0813409F476C0823409F41B
:107AF00085C0853409F488C0803531F1823521F1A3
:107B0000813511F1853509F485C0863509F48DC0BC
:107B1000843609F496C0843709F403C1853709F423
:107B200072C1863709F466C0809103018F5F80932C
:107B30000301853079F6E0910401F0910501099582
:107B40000E94763C803351F60E94F33CC3CF0E94E2
:107B5000763C803249F78091C00085FFFCCFF092DF
:107B6000C6008091C00085FFFCCF9092C600809136
:107B7000C00085FFFCCF8092C6008091C00085FFC9
:107B8000FCCF7092C6008091C00085FFFCCF609250
:107B9000C6008091C00085FFFCCF5092C600809146
:107BA000C00085FFFCCF4092C6008091C00085FFD9
:107BB000FCCF3092C6008091C00085FFFCCFB09210
:107BC000C60088CF0E94763C863808F4BDCF0E945C
:107BD000763C0E94F33C7ECF0E94763C803809F4CC
:107BE0009CC0813809F40BC1823809F43CC1883942
:107BF00009F48FC080E00E94C73C6CCF84E10E94F2
:107C0000BD3C0E94F33C66CF85E00E94BD3C0E94D3
:107C1000F33C60CF0E94763C809306010E94763C44
:107C2000809307010E94F33C55CF0E94763C80333D
:107C300009F41DC183E00E94BD3C80E00E94C73C66
:107C400049CF0E94763C809309020E94763C809343
:107C5000080280910C028E7F80930C020E94763C79
:107C6000853409F415C18091080290910902892B8D
:107C700089F000E010E00E94763CF801E85FFE4FDA
:107C800080830F5F1F4F80910802909109020817AF
:107C9000190788F30E94763C803209F045CF809125
:107CA0000C0280FF01C16091060170910701660F0F
:107CB000771F7093070160930601A0910802B091AD
:107CC00009021097C9F0E8E0F1E09B01AD014E0F09
:107CD0005F1FF999FECF32BD21BD819180BDFA9A17
:107CE000F99A2F5F3F4FE417F50799F76A0F7B1F4B
:107CF00070930701609306018091C00085FFFCCF5F
:107D0000F092C6008091C00085FFFCCFB092C60003
:107D1000E1CE83E00E94C73CDDCE82E00E94C73CFA
:107D2000D9CE0E94763C809309020E94763C8093D3
:107D300008028091060190910701880F991F909386
:107D40000701809306010E94763C853409F4A6C0A1
:107D500080910C028E7F80930C020E94763C8032D0
:107D600009F0B8CE8091C00085FFFCCFF092C6002C
:107D7000609108027091090261157105B9F140E046
:107D800050E080910C02A82FA170B82FB27011C0E2
:107D9000BB2309F45CC0E0910601F0910701319624
:107DA000F0930701E09306014F5F5F4F46175707B7
:107DB000E8F4AA2369F3F999FECF209106013091E6
:107DC000070132BD21BDF89A90B58091C00085FFB2
:107DD000FCCF9093C6002F5F3F4F30930701209355
:107DE00006014F5F5F4F4617570718F38091C00099
:107DF00085FDE5CE8091C00085FFF8CFE0CE81E023
:107E00000E94C73C67CE0E94763C803209F08CCE3F
:107E10008091C00085FFFCCFF092C6008091C00029
:107E200085FFFCCFE092C6008091C00085FFFCCFAB
:107E3000D092C6008091C00085FFFCCFC092C600E2
:107E40008091C00085FFFCCFB092C60043CEE09188
:107E50000601F091070194918091C00085FFFCCF4D
:107E60009093C6009CCF80E10E94C73C33CE0E9415
:107E7000763C0E94763C182F0E94763C112309F430
:107E800083C0113009F484C08FE00E94C73C22CE29
:107E900080910C02816080930C02E5CE80910C02EF
:107EA000816080930C0259CF809107018823880F4D
:107EB000880B8A2180930B02809106019091070123
:107EC000880F991F90930701809306018091080203
:107ED00080FF09C080910802909109020196909359
:107EE000090280930802F894F999FECF1127E091D6
:107EF0000601F0910701C8E0D1E08091080290915D
:107F00000902103091F40091570001700130D9F34B
:107F100003E000935700E89500915700017001308D
:107F2000D9F301E100935700E89509901990009169
:107F3000570001700130D9F301E000935700E89534
:107F40001395103498F011270091570001700130FB
:107F5000D9F305E000935700E895009157000170B0
:107F60000130D9F301E100935700E895329602976A
:107F700009F0C7CF103011F00296E5CF112480919F
:107F8000C00085FFB9CEBCCE8EE10E94C73CA2CD19
:0C7F900085E90E94C73C9ECDF894FFCF0D
:027F9C00800063
:040000030000780081
:00000001FF