:100000000C9434000C9489020C946F020C94A4019B
:100010000C9409020C9451000C9451000C94300182
:100020000C941B010C9451000C9451000C94590138
:100030000C9451000C9445010C947A010C946D01C0
:100040000C94D1000C9451000C9451000C9451006C
:100050000C9451000C9451000C9451000C945100DC
:100060000C9451000C94510011241FBECFEFD8E026
:10007000DEBFCDBF21E0A8E0B1E001C01D92A134F8
:10008000B207E1F711E0A0E0B1E0E4E8FBE002C074
:1000900005900D92A830B107D9F70E94EE020C949A
:1000A000C0050C94000087E480937C0080917A0066
:1000B000806480937A0080917A0086FDFCCF8091E5
:1000C00078002091790090E0922B0895E0EBF0E029
:1000D00080818F70808310926F002C9A2B985D9A8C
:1000E0005B980895809127018823C1F01092270121
:1000F0008091230190912401A0912501B0912601C6
:10010000813523EC920728F49093220180932101FA
:100110000FC010922201109221010AC0809120018B
:10012000833330F0109222011092210110922001AD
:100130008091210190912201089580913601909142
:100140003701843F914048F40E9472009093370138
:1001500080933601289A0E946600289808950F938C
:100160001F93009128011091290120912A013091BB
:100170002B01A0E0B0E0409128015091290160914D
:100180002A0170912B01401B510B620B730B8417DA
:100190009507A607B70778F71F910F9108950C945C
:1001A00047051F920F920FB60F9211242F933F9382
:1001B0008F939F93AF93BF9380913D0190913E01A8
:1001C000A0913F01B091400130913C0123E0230F09
:1001D0002D3720F40196A11DB11D05C026E8230F7F
:1001E0000296A11DB11D20933C0180933D01909387
:1001F0003E01A0933F01B09340018091380190915E
:100200003901A0913A01B0913B010196A11DB11DA8
:100210008093380190933901A0933A01B0933B0148
:10022000BF91AF919F918F913F912F910F900FBEF2
:100230000F901F90189578941F920F920FB60F92FF
:1002400011248F932C9880913401811102C05B9806
:1002500001C02B988F910F900FBE0F901F90189593
:1002600078941F920F920FB60F9211248F932C98AF
:1002700080913401811102C05B9A01C02B9A8F9149
:100280000F900FBE0F901F90189578941F920F92A9
:100290000FB60F9211248F9380913401811102C007
:1002A0005D9A01C02C9A8F910F900FBE0F901F90F6
:1002B000189578941F920F920FB60F9211248F9376
:1002C00080913401811102C05D9801C02C988F91FA
:1002D0000F900FBE0F901F90189578941F920F9259
:1002E0000FB60F9211242C9A5D9A0F900FBE0F90AB
:1002F0001F9018951F920F920FB60F9211248F9393
:100300009F93AF93BF938091280190912901A09171
:100310002A01B0912B010196A11DB11D80932801E6
:1003200090932901A0932A01B0932B018091200181
:100330008F5F80932001BF91AF919F918F910F901C
:100340000FBE0F901F9018951F920F920FB60F922D
:100350001124CF92DF92EF92FF922F933F934F930E
:100360005F936F937F938F939F93AF93BF932091EE
:1003700028013091290140912A0150912B0166B545
:1003800084E0689FB00111246B01770FEE08FF082D
:10039000A8EEB3E00E947C05DC01CB018C0D9D1D15
:1003A000AE1DBF1D1C9B09C080931C0190931D01B5
:1003B000A0931E01B0931F0119C0C0901C01D090E2
:1003C0001D01E0901E01F0901F018C199D09AE09DE
:1003D000BF098093180190931901A0931A01B0935B
:1003E0001B0181E08093170110921601BF91AF911C
:1003F0009F918F917F916F915F914F913F912F913D
:10040000FF90EF90DF90CF900F900FBE0F901F9056
:10041000189578941F920F920FB60F921124CF92D5
:10042000DF92EF92FF922F933F934F935F936F93DF
:100430007F938F939F93AF93BF9320912801309127
:10044000290140912A0150912B0166B584E0689FF3
:10045000B00111246B01770FEE08FF08A8EEB3E09E
:100460000E947C05DC01CB018C0D9D1DAE1DBF1DC6
:10047000309B09C08093120190931301A093140143
:10048000B093150119C0C0901201D0901301E090F3
:100490001401F09015018C199D09AE09BF098093D4
:1004A000230190932401A0932501B093260181E0BC
:1004B0008093270110922001BF91AF919F918F915E
:1004C0007F916F915F914F913F912F91FF90EF90AE
:1004D000DF90CF900F900FBE0F901F9018951F9236
:1004E0000F920FB60F9211248F93EF93FF93229ADE
:1004F0002A9886B58F5F88BDEEE6F0E08081846043
:100500008083FF91EF918F910F900FBE0F901F90FE
:1005100018951F920F920FB60F921124CF92DF926F
:10052000EF92FF922F933F934F935F936F937F933D
:100530008F939F93AF93BF9320912801309129010E
:1005400040912A0150912B0166B584E0689FB0016B
:1005500011246B01770FEE08FF08A8EEB3E00E94AC
:100560007C05DC01CB018C0D9D1DAE1DBF1D4A9B82
:1005700009C080930E0190930F01A0931001B093D6
:10058000110119C0C0900E01D0900F01E090100130
:10059000F09011018C199D09AE09BF0980930A01E1
:1005A00090930B01A0930C01B0930D0181E0809317
:1005B000090110920801BF91AF919F918F917F9196
:1005C0006F915F914F913F912F91FF90EF90DF904E
:1005D000CF900F900FBE0F901F901895789484B510
:1005E000826084BD84B5816084BD85B5826085BD2F
:1005F00085B5816085BD80916E00816080936E00BD
:1006000010928100809181008260809381008091AE
:10061000810081608093810080918000816080935F
:1006200080008091B10084608093B1008091B0001F
:1006300081608093B00080917A00846080937A001A
:1006400080917A00826080937A0080917A00816044
:1006500080937A0080917A00806880937A0010926B
:10066000C10014BC15BC10926E0085B5836085BDB9
:1006700084B5826084BD89EF87BD80916E00826001
:1006800080936E003898409A8091680082608093D1
:10069000680080916C00816080936C008AEF90E02C
:1006A0000E94CF00282F30E0A0EDB7E00E94B105F6
:1006B000C12CD12C7601CA94A70196010E945D0538
:1006C00030933101209330018FEF90E00E94CF00F2
:1006D000282F30E0A0EDB7E00E94B105A7019601F8
:1006E0000E945D05309333012093320184E091E054
:1006F0000E94CF00282F30E0A0EDB7E00E94B105A6
:10070000A70196010E945D0530932D0120932C01D5
:1007100089E091E00E94CF00282F30E0A0EDB7E003
:100720000E94B105A70196010E945D0530932F013B
:1007300020932E01559A5D98249A2C98539A5B9891
:10074000239A2B981092B0001092B1008091B100C2
:1007500084608093B1008091B00083608093B0008A
:100760008EEF8093B30080918400909185008F5F1D
:100770008093B200109280001092810080918100DD
:1007800088608093810080918000816080938000E8
:1007900080918100836080938100209A0E94720082
:1007A0009093370180933601289A88EE93E00E9457
:1007B000AF00289838EE432E33E0532E612C712C75
:1007C00040EDC42E47E0D42EE12CF12C52EC852EC6
:1007D00099249394A12CB12C60E2262E63E0362E4E
:1007E000C0EDD7E00E9472009093370180933601EC
:1007F0000E945300892B09F0B6C00E946600289819
:100800000E949D0003E010E0289A84E690E00E9498
:10081000AF00289884E690E00E94AF0001501109D3
:1008200099F73092330120923201D0933101C09375
:10083000300130922F0120922E01D0932D01C093D0
:100840002C0100E010E00E94720090933701809329
:1008500036012091300130913101582F492F28174E
:10086000390710F4522F432F509330014093310138
:1008700020913201309133018217930708F4C901A6
:1008800090933301809332010A3F110514F4289AA2
:1008900001C028988FE090E00E94AF000F5F1F4FCB
:1008A0000E3521E0120779F62091300130913101A7
:1008B000AFEFB0E00E94B105611520ED720727E0AF
:1008C0008207910534F4A70196010E945D05622F0D
:1008D00001C06FEF8AEF90E00E944F052091320136
:1008E00030913301AFEFB0E00E94B105611520ED0A
:1008F000720727E08207910534F4A70196010E9450
:100900005D05622F01C06FEF8FEF90E00E944F05F1
:1009100003E010E0289A84E690E00E94AF00289857
:1009200084E690E00E94AF000150110999F70E94FF
:100930005300892BB9F460912801709129018091AD
:100940002A0190912B01A30192010E948F05672B30
:10095000682B692B61F7289A82E390E00E94AF0030
:100960002898E5CF289800913601109137018091A1
:100970000201909103018017910720F41093030165
:10098000009302018091000190910101081719075D
:1009900020F410930101009300010F3086E0180746
:1009A000B0F180913501823011F40E94660091E02F
:1009B000909334018091B00080688093B0005D987E
:1009C0005B9880916F00836080936F00C801A0E006
:1009D000B0E09C01AD012E50364041095109A1E023
:1009E000BFEF0E948A05A50194010E945D05DA010E
:1009F000C90181509F4FAF4FBF4F282F30E0309338
:100A000089002093880021E02093350136C00A3AFE
:100A100085E0180770F580913501813011F40E944E
:100A20006600109234018091B00080638093B00022
:100A30002C982B9880916F00836080936F00C80181
:100A4000A0E0B0E09C01AD01285E334041095109AE
:100A5000AFEFB0E00E947C05A50194010E945D0506
:100A600030E0309389002093880092E09093350124
:100A700004C00E946600109235010E949D0080E033
:100A800090E0892B09F4AECE0E940000ABCEF9991C
:100A9000FECF92BD81BDF89A992780B50895262F83
:100AA000F999FECF1FBA92BD81BD20BD0FB6F89453
:100AB000FA9AF99A0FBE01960895052E97FB1EF437
:100AC00000940E94740557FD07D00E948F0507FC13
:100AD00003D04EF40C9474055095409530952195B3
:100AE0003F4F4F4F5F4F089590958095709561955A
:100AF0007F4F8F4F9F4F08950E94B105A59F900D86
:100B0000B49F900DA49F800D911D11240895B7FFEF
:100B10000C947C050E947C05821B930B0895A1E236
:100B20001A2EAA1BBB1BFD010DC0AA1FBB1FEE1F67
:100B3000FF1FA217B307E407F50720F0A21BB30BB2
:100B4000E40BF50B661F771F881F991F1A9469F72E
:100B500060957095809590959B01AC01BD01CF018A
:100B60000895A29FB001B39FC001A39F700D811D86
:100B70001124911DB29F700D811D1124911D0895A6
:040B8000F894FFCF17
:080B8400B0046C070100000041
:107800000C94343C0C94513C0C94513C0C94513CE1
:107810000C94513C0C94513C0C94513C0C94513CB4
:107820000C94513C0C94513C0C94513C0C94513CA4
:107830000C94513C0C94513C0C94513C0C94513C94
:107840000C94513C0C94513C0C94513C0C94513C84
:107850000C94513C0C94513C0C94513C0C94513C74
:107860000C94513C0C94513C11241FBECFEFD8E036
:10787000DEBFCDBF11E0A0E0B1E0ECE9FFE702C060
:1078800005900D92A230B107D9F712E0A2E0B1E065
:1078900001C01D92AD30B107E1F70E942D3D0C945F
:1078A000CC3F0C94003C982F959595959595959582
:1078B000905D8F708A307CF0282F295A8091C0000B
:1078C00085FFFCCF9093C6008091C00085FFFCCF60
:1078D0002093C6000895282F205DF0CF982F809127
:1078E000C00085FFFCCF9093C6000895EF92FF92F1
:1078F0000F931F93EE24FF2487018091C00087FD22
:1079000017C00894E11CF11C011D111D81E4E8164B
:1079100082E4F8068FE0080780E0180770F3E09132
:107920000401F091050109958091C00087FFE9CF1E
:107930008091C6001F910F91FF90EF9008950E94D3
:10794000763C982F8091C00085FFFCCF9093C600B5
:1079500091362CF490330CF09053892F089597555D
:10796000892F08951F930E949F3C182F0E949F3CCF
:107970001295107F810F1F9108951F93182F882350
:1079800021F00E94763C1150E1F71F9108951F935A
:10799000182F0E94763C803249F0809103018F5F5E
:1079A000809303018530C1F01F9108958091C0003C
:1079B00085FFFCCF84E18093C6008091C00085FFE5
:1079C000FCCF1093C6008091C00085FFFCCF80E102
:1079D0008093C6001F910895E0910401F091050184
:1079E00009951F9108950E94763C803241F0809164
:1079F00003018F5F80930301853081F008958091AA
:107A0000C00085FFFCCF84E18093C6008091C00058
:107A100085FFFCCF80E18093C6000895E0910401CA
:107A2000F09105010995089540E951E08823A1F0FE
:107A30002D9A28EE33E0FA013197F1F721503040CA
:107A4000D1F72D9828EE33E0FA013197F1F7215064
:107A50003040D1F7815061F708953F924F925F9285
:107A60006F927F928F929F92AF92BF92CF92DF924E
:107A7000EF92FF920F931F93CF93DF93000080E16B
:107A80008093C4001092C50088E18093C10086E015
:107A90008093C2005098589A259A81E00E94143D24
:107AA00024E1F22E9EE1E92E85E9D82E0FE0C02ECA
:107AB00010E1B12EAA24A394B1E49B2EA6E58A2E50
:107AC000F2E57F2EE0E26E2E79E4572E63E5462E36
:107AD00050E5352E0E94763C8033B1F18133B9F107
:107AE000803409F46FC0813409F476C0823409F41B
:107AF00085C0853409F488C0803531F1823521F1A3
:107B0000813511F1853509F485C0863509F48DC0BC
:107B1000843609F496C0843709F403C1853709F423
:107B200072C1863709F466C0809103018F5F80932C
:107B30000301853079F6E0910401F0910501099582
:107B40000E94763C803351F60E94F33CC3CF0E94E2
:107B5000763C803249F78091C00085FFFCCFF092DF
:107B6000C6008091C00085FFFCCF9092C600809136
:107B7000C00085FFFCCF8092C6008091C00085FFC9
:107B8000FCCF7092C6008091C00085FFFCCF609250
:107B9000C6008091C00085FFFCCF5092C600809146
:107BA000C00085FFFCCF4092C6008091C00085FFD9
:107BB000FCCF3092C6008091C00085FFFCCFB09210
:107BC000C60088CF0E94763C863808F4BDCF0E945C
:107BD000763C0E94F33C7ECF0E94763C803809F4CC
:107BE0009CC0813809F40BC1823809F43CC1883942
:107BF00009F48FC080E00E94C73C6CCF84E10E94F2
:107C0000BD3C0E94F33C66CF85E00E94BD3C0E94D3
:107C1000F33C60CF0E94763C809306010E94763C44
:107C2000809307010E94F33C55CF0E94763C80333D
:107C300009F41DC183E00E94BD3C80E00E94C73C66
:107C400049CF0E94763C809309020E94763C809343
:107C5000080280910C028E7F80930C020E94763C79
:107C6000853409F415C18091080290910902892B8D
:107C700089F000E010E00E94763CF801E85FFE4FDA
:107C800080830F5F1F4F80910802909109020817AF
:107C9000190788F30E94763C803209F045CF809125
:107CA0000C0280FF01C16091060170910701660F0F
:107CB000771F7093070160930601A0910802B091AD
:107CC00009021097C9F0E8E0F1E09B01AD014E0F09
:107CD0005F1FF999FECF32BD21BD819180BDFA9A17
:107CE000F99A2F5F3F4FE417F50799F76A0F7B1F4B
:107CF00070930701609306018091C00085FFFCCF5F
:107D0000F092C6008091C00085FFFCCFB092C60003
:107D1000E1CE83E00E94C73CDDCE82E00E94C73CFA
:107D2000D9CE0E94763C809309020E94763C8093D3
:107D300008028091060190910701880F991F909386
:107D40000701809306010E94763C853409F4A6C0A1
:107D500080910C028E7F80930C020E94763C8032D0
:107D600009F0B8CE8091C00085FFFCCFF092C6002C
:107D7000609108027091090261157105B9F140E046
:107D800050E080910C02A82FA170B82FB27011C0E2
:107D9000BB2309F45CC0E0910601F0910701319624
:107DA000F0930701E09306014F5F5F4F46175707B7
:107DB000E8F4AA2369F3F999FECF209106013091E6
:107DC000070132BD21BDF89A90B58091C00085FFB2
:107DD000FCCF9093C6002F5F3F4F30930701209355
:107DE00006014F5F5F4F4617570718F38091C00099
:107DF00085FDE5CE8091C00085FFF8CFE0CE81E023
:107E00000E94C73C67CE0E94763C803209F08CCE3F
:107E10008091C00085FFFCCFF092C6008091C00029
:107E200085FFFCCFE092C6008091C00085FFFCCFAB
:107E3000D092C6008091C00085FFFCCFC092C600E2
:107E40008091C00085FFFCCFB092C60043CEE09188
:107E50000601F091070194918091C00085FFFCCF4D
:107E60009093C6009CCF80E10E94C73C33CE0E9415
:107E7000763C0E94763C182F0E94763C112309F430
:107E800083C0113009F484C08FE00E94C73C22CE29
:107E900080910C02816080930C02E5CE80910C02EF
:107EA000816080930C0259CF809107018823880F4D
:107EB000880B8A2180930B02809106019091070123
:107EC000880F991F90930701809306018091080203
:107ED00080FF09C080910802909109020196909359
:107EE000090280930802F894F999FECF1127E091D6
:107EF0000601F0910701C8E0D1E08091080290915D
:107F00000902103091F40091570001700130D9F34B
:107F100003E000935700E89500915700017001308D
:107F2000D9F301E100935700E89509901990009169
:107F3000570001700130D9F301E000935700E89534
:107F40001395103498F011270091570001700130FB
:107F5000D9F305E000935700E895009157000170B0
:107F60000130D9F301E100935700E895329602976A
:107F700009F0C7CF103011F00296E5CF112480919F
:107F8000C00085FFB9CEBCCE8EE10E94C73CA2CD19
:0C7F900085E90E94C73C9ECDF894FFCF0D
:027F9C00800063
:040000030000780081
:00000001FF