:100000000C9434000C9465020C944B020C947F0108
:100010000C94E5010C9451000C9451000C940B01CC
:100020000C94F6000C9451000C9451000C94340183
:100030000C9451000C9420010C9455010C9448012F
:100040000C94AC000C9451000C9451000C94510091
:100050000C9451000C9451000C9451000C945100DC
:100060000C9451000C94510011241FBECFEFD8E026
:10007000DEBFCDBF21E0A4E0B1E001C01D92AC33F2
:10008000B207E1F711E0A0E0B1E0E8E2F9E002C078
:1000900005900D92A430B107D9F70E94CA020C94C2
:1000A00092040C9400003FB7F8948091260190913F
:1000B0002701A0912801B091290126B5A89B05C070
:1000C0002F3F19F00196A11DB11D3FBFBA2FA92FD7
:1000D000982F8827820F911DA11DB11DBC01CD0154
:1000E00042E0660F771F881F991F4A95D1F7089540
:1000F000843120F08F3E18F08EEE01C084E191E053
:10010000909320015D985B9890E090938900809394
:10011000880008950F931F9300911C0110911D01F9
:1001200020911E0130911F01A0E0B0E040911C0120
:1001300050911D0160911E0170911F01401B510BD8
:10014000620B730B84179507A607B70778F71F9103
:100150000F9108950C942F041F920F920FB60F92D7
:1001600011242F933F938F939F93AF93BF938091CD
:10017000220190912301A0912401B0912501309199
:10018000210123E0230F2D3720F40196A11DB11D7D
:1001900005C026E8230F0296A11DB11D2093210161
:1001A0008093220190932301A0932401B093250111
:1001B0008091260190912701A0912801B0912901F9
:1001C0000196A11DB11D8093260190932701A09354
:1001D0002801B0932901BF91AF919F918F913F91D9
:1001E0002F910F900FBE0F901F90189578941F922B
:1001F0000F920FB60F9211248F932C9880912001AB
:10020000811102C05B9801C02B988F910F900FBE97
:100210000F901F90189578941F920F920FB60F921F
:1002200011248F932C9880912001811102C05B9A38
:1002300001C02B9A8F910F900FBE0F901F901895B1
:1002400078941F920F920FB60F9211248F93809182
:100250002001811102C05D9A01C02C9A8F910F90EC
:100260000FBE0F901F90189578941F920F920FB6A3
:100270000F9211248F9380912001811102C05D980B
:1002800001C02C988F910F900FBE0F901F90189562
:1002900078941F920F920FB60F9211242C9A5D9AA8
:1002A0000F900FBE0F901F9018951F920F920FB6D0
:1002B0000F9211248F939F93AF93BF9380911C0152
:1002C00090911D01A0911E01B0911F010196A11DE9
:1002D000B11D80931C0190931D01A0931E01B0934A
:1002E0001F01809132018F5F80933201BF91AF91E6
:1002F0009F918F910F900FBE0F901F90189578943B
:100300001F920F920FB60F921124CF92DF92EF92AD
:10031000FF922F933F934F935F936F937F938F93AE
:100320009F93AF93BF9320911C0130911D01409189
:100330001E0150911F0166B584E0689FB001112431
:100340006B01770FEE08FF08A8EEB3E00E94560499
:10035000DC01CB018C0D9D1DAE1DBF1D1C9B09C07A
:100360008093180190931901A0931A01B0931B0177
:1003700019C0C0901801D0901901E0901A01F090B6
:100380001B018C199D09AE09BF098093140190933C
:100390001501A0931601B093170181E0809313011A
:1003A00010921201BF91AF919F918F917F916F91A8
:1003B0005F914F913F912F91FF90EF90DF90CF9001
:1003C0000F900FBE0F901F90189578941F920F9268
:1003D0000FB60F921124CF92DF92EF92FF922F93DC
:1003E0003F934F935F936F937F938F939F93AF93BD
:1003F000BF9320911C0130911D0140911E0150912D
:100400001F0166B584E0689FB00111246B01770F6E
:10041000EE08FF08A8EEB3E00E945604DC01CB0111
:100420008C0D9D1DAE1DBF1D309B09C080930E011C
:1004300090930F01A0931001B093110119C0C090C7
:100440000E01D0900F01E0901001F09011018C1975
:100450009D09AE09BF098093350190933601A093A1
:100460003701B093380181E0809339011092320155
:10047000BF91AF919F918F917F916F915F914F91BC
:100480003F912F91FF90EF90DF90CF900F900FBE94
:100490000F901F9018951F920F920FB60F92112474
:1004A0008F93EF93FF93229A2A9886B58F5F88BD2A
:1004B000EEE6F0E0808184608083FF91EF918F9180
:1004C0000F900FBE0F901F9018951F920F920FB6AE
:1004D0000F921124CF92DF92EF92FF922F933F93CE
:1004E0004F935F936F937F938F939F93AF93BF933C
:1004F00020911C0130911D0140911E0150911F015E
:1005000066B584E0689FB00111246B01770FEE0897
:10051000FF08A8EEB3E00E945604DC01CB018C0D6D
:100520009D1DAE1DBF1D4A9B09C080930A0190937B
:100530000B01A0930C01B0930D0119C0C0900A01EA
:10054000D0900B01E0900C01F0900D018C199D09E9
:10055000AE09BF098093060190930701A09308019B
:10056000B093090181E08093050110920401BF91CD
:10057000AF919F918F917F916F915F914F913F913B
:100580002F91FF90EF90DF90CF900F900FBE0F90C4
:100590001F901895789484B5826084BD84B581607D
:1005A00084BD85B5826085BD85B5816085BD80913E
:1005B0006E00816080936E001092810080918100B6
:1005C00082608093810080918100816080938100AE
:1005D000809180008160809380008091B100846070
:1005E0008093B1008091B00081608093B0008091D1
:1005F0007A00846080937A0080917A008260809390
:100600007A0080917A00816080937A0080917A00EC
:10061000806880937A001092C10014BC15BC1092BF
:100620006E0085B5836085BD84B5826084BD89EF29
:1006300087BD80916E00826080936E003898409AEA
:100640008091680082608093680080916C00816076
:1006500080936C008AEF90E00E94AA00282F30E07F
:10066000A0EDB7E00E948304C12CD12C7601CA947E
:10067000A70196010E943704309331012093300185
:100680008FEF90E00E94AA00282F30E0A0EDB7E0A5
:100690000E948304A70196010E94370430932F0122
:1006A00020932E0184E091E00E94AA00282F30E0E0
:1006B000A0EDB7E00E948304A70196010E943704D1
:1006C00030932D0120932C0189E091E00E94AA0033
:1006D000282F30E0A0EDB7E00E948304A701960127
:1006E0000E94370430932B0120932A01559A5D987C
:1006F000249A2C98539A5B98239A2B981092B000C6
:100700001092B1008091B10084608093B10080911B
:10071000B00083608093B0008091B00080688093C7
:10072000B0008DEF8093B30080918400909185009C
:100730008F5F8093B20010928000109281008091B0
:100740008100886080938100809180008160809327
:1007500080008091810083608093810080916F0090
:10076000836080936F00209A809139018823B1F0D3
:10077000109239018091350190913601A091370195
:10078000B091380190933401809333018135934CBB
:1007900078F010923401109233010AC08091320136
:1007A000833330F0109234011092330110923201F1
:1007B000809133019091340190933B0180933A01F1
:1007C000289A88EE93E00E948A00289800E010E0C2
:1007D000C0E08C2F0E94780085E090E00E948A00A3
:1007E000CF5FCF3FB1F70E9453004B015C0188EE11
:1007F000C82E83E0D82EE12CF12C0E945300DC019E
:10080000CB0188199909AA09BB09883E9340A10523
:10081000B10558F081E0C81AD108E108F10828EEC6
:10082000820E23E0921EA11CB11CC114D104E1046C
:10083000F10419F7CFEF8C2F0E94780085E090E04B
:100840000E948A00C150B9F788EE93E00E948A00A6
:100850000115110509F4BCCF0E940000B9CFF99928
:10086000FECF92BD81BDF89A992780B50895052ED7
:1008700097FB1EF400940E944E0457FD07D00E947F
:10088000610407FC03D04EF40C944E04509540953F
:10089000309521953F4F4F4F5F4F0895909580952C
:1008A000709561957F4F8F4F9F4F08950E948304ED
:1008B000A59F900DB49F900DA49F800D911D1124B4
:1008C0000895A1E21A2EAA1BBB1BFD010DC0AA1F91
:1008D000BB1FEE1FFF1FA217B307E407F50720F0A9
:1008E000A21BB30BE40BF50B661F771F881F991F24
:1008F0001A9469F760957095809590959B01AC016D
:10090000BD01CF010895A29FB001B39FC001A39F75
:10091000700D811D1124911DB29F700D811D112438
:08092000911D0895F894FFCF2A
:0409280001000000CA
:107E0000112484B714BE81FFF0D085E080938100F7
:107E100082E08093C00088E18093C10086E0809377
:107E2000C20080E18093C4008EE0C9D0259A86E02C
:107E300020E33CEF91E0309385002093840096BBD3
:107E4000B09BFECF1D9AA8958150A9F7CC24DD24C4
:107E500088248394B5E0AB2EA1E19A2EF3E0BF2EE7
:107E6000A2D0813461F49FD0082FAFD0023811F036
:107E7000013811F484E001C083E08DD089C08234E0
:107E800011F484E103C0853419F485E0A6D080C0E4
:107E9000853579F488D0E82EFF2485D0082F10E0AE
:107EA000102F00270E291F29000F111F8ED06801E7
:107EB0006FC0863521F484E090D080E0DECF843638
:107EC00009F040C070D06FD0082F6DD080E0C81688
:107ED00080E7D80618F4F601B7BEE895C0E0D1E017
:107EE00062D089930C17E1F7F0E0CF16F0E7DF06D8
:107EF00018F0F601B7BEE89568D007B600FCFDCFD4
:107F0000A601A0E0B1E02C9130E011968C91119780
:107F100090E0982F8827822B932B1296FA010C0160
:107F200087BEE89511244E5F5F4FF1E0A038BF0790
:107F300051F7F601A7BEE89507B600FCFDCF97BE46
:107F4000E89526C08437B1F42ED02DD0F82E2BD052
:107F50003CD0F601EF2C8F010F5F1F4F84911BD097
:107F6000EA94F801C1F70894C11CD11CFA94CF0C13
:107F7000D11C0EC0853739F428D08EE10CD085E9AC
:107F80000AD08FE07ACF813511F488E018D01DD067
:107F900080E101D065CF982F8091C00085FFFCCF94
:107FA0009093C60008958091C00087FFFCCF809118
:107FB000C00084FD01C0A8958091C6000895E0E648
:107FC000F0E098E1908380830895EDDF803219F02E
:107FD00088E0F5DFFFCF84E1DECF1F93182FE3DFCA
:107FE0001150E9F7F2DF1F91089580E0E8DFEE27F6
:047FF000FF270994CA
:027FFE00040479
:0400000300007E007B
:00000001FF