:100000000C9434000C948D020C9473020C94A8018F
:100010000C940D020C9451000C9451000C9434017A
:100020000C941F010C9451000C9451000C945D0130
:100030000C9451000C9449010C947E010C947101B4
:100040000C94D5000C9451000C9451000C94510068
:100050000C9451000C9451000C9451000C945100DC
:100060000C9451000C94510011241FBECFEFD8E026
:10007000DEBFCDBF21E0A4E0B1E001C01D92AD33F1
:10008000B207E1F711E0A0E0B1E0E6E5FBE002C075
:1000900005900D92A430B107D9F70E94F2020C949A
:1000A000A9050C94000087E480937C0080917A007D
:1000B000806480937A0080917A0086FDFCCF8091E5
:1000C00078002091790090E0922B0895E0EBF0E029
:1000D00080818F70808310926F002C9A2B985D9A8C
:1000E0005B980895809123018823C1F01092230129
:1000F00080911F0190912001A0912101B0912201D6
:10010000813523EC920728F490931E0180931D0102
:100110000FC010921E0110921D010AC080911C0197
:10012000833330F010921E0110921D0110921C01B9
:1001300080911D0190911E0108950F931F930091CE
:100140002401109125012091260130912701A0E082
:10015000B0E04091240150912501609126017091F9
:100160002701401B510B620B730B84179507A607E1
:10017000B70778F71F910F91089580913201909100
:100180003301843F914068F40E94720090933301E0
:1001900080933201289A0E94660082E390E00E94D8
:1001A0009D00289808950C9438051F920F920FB661
:1001B0000F9211242F933F938F939F93AF93BF93ED
:1001C0008091390190913A01A0913B01B0913C019D
:1001D0003091380123E0230F2D3720F40196A11D23
:1001E000B11D05C026E8230F0296A11DB11D209365
:1001F00038018093390190933A01A0933B01B09369
:100200003C018091340190913501A0913601B0916B
:1002100037010196A11DB11D8093340190933501E2
:10022000A0933601B0933701BF91AF919F918F9109
:100230003F912F910F900FBE0F901F9018957894BB
:100240001F920F920FB60F9211248F932C988091CA
:100250003001811102C05B9801C02B988F910F90E3
:100260000FBE0F901F90189578941F920F920FB6A3
:100270000F9211248F932C9880913001811102C02C
:100280005B9A01C02B9A8F910F900FBE0F901F9019
:10029000189578941F920F920FB60F9211248F9396
:1002A00080913001811102C05D9A01C02C9A8F911A
:1002B0000F900FBE0F901F90189578941F920F9279
:1002C0000FB60F9211248F9380913001811102C0DB
:1002D0005D9801C02C988F910F900FBE0F901F90CA
:1002E000189578941F920F920FB60F9211242C9AA2
:1002F0005D9A0F900FBE0F901F9018951F920F924E
:100300000FB60F9211248F939F93AF93BF93809159
:10031000240190912501A0912601B0912701019619
:10032000A11DB11D8093240190932501A093260166
:10033000B093270180911C018F5F80931C01BF91B6
:10034000AF919F918F910F900FBE0F901F901895B6
:100350001F920F920FB60F921124CF92DF92EF925D
:10036000FF922F933F934F935F936F937F938F935E
:100370009F93AF93BF932091240130912501409129
:1003800026015091270166B584E0689FB0011124D1
:100390006B01770FEE08FF08A8EEB3E00E946D0531
:1003A000DC01CB018C0D9D1DAE1DBF1D1C9B09C02A
:1003B0008093180190931901A0931A01B0931B0127
:1003C00019C0C0901801D0901901E0901A01F09066
:1003D0001B018C199D09AE09BF09809314019093EC
:1003E0001501A0931601B093170181E080931301CA
:1003F00010921201BF91AF919F918F917F916F9158
:100400005F914F913F912F91FF90EF90DF90CF90B0
:100410000F900FBE0F901F90189578941F920F9217
:100420000FB60F921124CF92DF92EF92FF922F938B
:100430003F934F935F936F937F938F939F93AF936C
:10044000BF932091240130912501409126015091C4
:10045000270166B584E0689FB00111246B01770F16
:10046000EE08FF08A8EEB3E00E946D05DC01CB01A9
:100470008C0D9D1DAE1DBF1D309B09C080930E01CC
:1004800090930F01A0931001B093110119C0C09077
:100490000E01D0900F01E0901001F09011018C1925
:1004A0009D09AE09BF0980931F0190932001A0937D
:1004B0002101B093220181E08093230110921C015D
:1004C000BF91AF919F918F917F916F915F914F916C
:1004D0003F912F91FF90EF90DF90CF900F900FBE44
:1004E0000F901F9018951F920F920FB60F92112424
:1004F0008F93EF93FF93229A2A9886B58F5F88BDDA
:10050000EEE6F0E0808184608083FF91EF918F912F
:100510000F900FBE0F901F9018951F920F920FB65D
:100520000F921124CF92DF92EF92FF922F933F937D
:100530004F935F936F937F938F939F93AF93BF93EB
:1005400020912401309125014091260150912701ED
:1005500066B584E0689FB00111246B01770FEE0847
:10056000FF08A8EEB3E00E946D05DC01CB018C0D05
:100570009D1DAE1DBF1D4A9B09C080930A0190932B
:100580000B01A0930C01B0930D0119C0C0900A019A
:10059000D0900B01E0900C01F0900D018C199D0999
:1005A000AE09BF098093060190930701A09308014B
:1005B000B093090181E08093050110920401BF917D
:1005C000AF919F918F917F916F915F914F913F91EB
:1005D0002F91FF90EF90DF90CF900F900FBE0F9074
:1005E0001F901895789484B5826084BD84B581602D
:1005F00084BD85B5826085BD85B5816085BD8091EE
:100600006E00816080936E00109281008091810065
:10061000826080938100809181008160809381005D
:10062000809180008160809380008091B10084601F
:100630008093B1008091B00081608093B000809180
:100640007A00846080937A0080917A00826080933F
:100650007A0080917A00816080937A0080917A009C
:10066000806880937A001092C10014BC15BC10926F
:100670006E0085B5836085BD84B5826084BD89EFD9
:1006800087BD80916E00826080936E003898409A9A
:100690008091680082608093680080916C00816026
:1006A00080936C008AEF90E00E94D300282F30E006
:1006B000A0EDB7E00E949A05C12CD12C7601CA9416
:1006C000A70196010E944E0530932D0120932C0125
:1006D0008FEF90E00E94D300282F30E0A0EDB7E02C
:1006E0000E949A05A70196010E944E0530932F01A2
:1006F00020932E0184E091E00E94D300282F30E067
:10070000A0EDB7E00E949A05A70196010E944E0550
:10071000309329012093280189E091E00E94D300C1
:10072000282F30E0A0EDB7E00E949A05A7019601BE
:100730000E944E0530932B0120932A01559A5D9813
:10074000249A2C98539A5B98239A2B981092B00075
:100750001092B1008091B10084608093B1008091CB
:10076000B00083608093B0008091B0008068809377
:10077000B0008091B00080638093B0008EEF8093D2
:10078000B30080918400909185008F5F8093B200C8
:100790001092800010928100809181008860809387
:1007A0008100809180008160809380008091810031
:1007B00083608093810080916F00836080936F00DD
:1007C000209A0E9472009093330180933201289AFC
:1007D00088EE93E00E949D00289838EE432E33E087
:1007E000532E612C712C40EDC42E47E0D42EE12C09
:1007F000F12C54EF852E9924939400E213E060EDE0
:10080000A62E67E0B62E80E0282E80E0382E0E94CB
:10081000720090933301809332010E945300892B20
:1008200009F0B3C00E94660028980E94BD00C3E092
:10083000D0E0289A84E690E00E949D00289884E603
:1008400090E00E949D002197A1F710932F01009343
:100850002E01B0922D01A0922C0110932B01009338
:100860002A01B0922901A0922801C0E0D0E00E94A4
:100870007200909333018093320120912C013091CA
:100880002D01582F492F2817390710F4522F432FC5
:1008900050932C0140932D0120912E0130912F0176
:1008A0008217930708F4C90190932F0180932E01BA
:1008B000CA3FD10514F4289A01C028988FE090E02F
:1008C0000E949D002196CE3521E0D20781F620912D
:1008D0002C0130912D01AFEFB0E00E949A05611517
:1008E00040ED740747E08407910534F4A7019601B1
:1008F0000E944E05622F01C06FEF8AEF90E00E94C8
:10090000400520912E0130912F01AFEFB0E00E9401
:100910009A05611520ED720727E08207910534F4EE
:10092000A70196010E944E05622F01C06FEF8FEF65
:1009300090E00E944005C3E0D0E0289A84E690E071
:100940000E949D00289884E690E00E949D002197D7
:10095000A1F70E945300892BB9F460912401709192
:1009600025018091260190912701A30192010E9407
:100970007805672B682B692B61F7289A82E390E052
:100980000E949D002898E5CF28982091320130914F
:1009900033012F3046E0340718F12C5D35404AED25
:1009A000429FC001439F900D1124B4010E94240571
:1009B0006C5E7F4F91E0909330018091B000806831
:1009C0008093B0005D985B9880916F008360809306
:1009D0006F007093890060938800909331012BC061
:1009E0002A3A85E0380718F5285E33404AED429FE1
:1009F000C001439F900D1124B4010E9424056C5E38
:100A00007F4F109230018091B00080638093B000DE
:100A10002C982B9880916F00836080936F00709367
:100A200089006093880082E08093310104C00E94B5
:100A30006600109231010E94BD002114310409F4B6
:100A4000E6CE0E940000DFCEAA1BBB1B51E107C00F
:100A5000AA1FBB1FA617B70710F0A61BB70B881F4E
:100A6000991F5A95A9F780959095BC01CD010895DD
:100A7000F999FECF92BD81BDF89A992780B5089566
:100A8000262FF999FECF1FBA92BD81BD20BD0FB6AA
:100A9000F894FA9AF99A0FBE01960895052E97FBDD
:100AA0001EF400940E94650557FD07D00E9478054A
:100AB00007FC03D04EF40C94650550954095309595
:100AC00021953F4F4F4F5F4F0895909580957095BA
:100AD00061957F4F8F4F9F4F08950E949A05A59F64
:100AE000900DB49F900DA49F800D911D1124089529
:100AF000A1E21A2EAA1BBB1BFD010DC0AA1FBB1F22
:100B0000EE1FFF1FA217B307E407F50720F0A21B93
:100B1000B30BE40BF50B661F771F881F991F1A9400
:100B200069F760957095809590959B01AC01BD012A
:100B3000CF010895A29FB001B39FC001A39F700D84
:100B4000811D1124911DB29F700D811D1124911DD5
:060B50000895F894FFCFA8
:040B5600010000009A
:107E0000112484B714BE81FFF0D085E080938100F7
:107E100082E08093C00088E18093C10086E0809377
:107E2000C20080E18093C4008EE0C9D0259A86E02C
:107E300020E33CEF91E0309385002093840096BBD3
:107E4000B09BFECF1D9AA8958150A9F7CC24DD24C4
:107E500088248394B5E0AB2EA1E19A2EF3E0BF2EE7
:107E6000A2D0813461F49FD0082FAFD0023811F036
:107E7000013811F484E001C083E08DD089C08234E0
:107E800011F484E103C0853419F485E0A6D080C0E4
:107E9000853579F488D0E82EFF2485D0082F10E0AE
:107EA000102F00270E291F29000F111F8ED06801E7
:107EB0006FC0863521F484E090D080E0DECF843638
:107EC00009F040C070D06FD0082F6DD080E0C81688
:107ED00080E7D80618F4F601B7BEE895C0E0D1E017
:107EE00062D089930C17E1F7F0E0CF16F0E7DF06D8
:107EF00018F0F601B7BEE89568D007B600FCFDCFD4
:107F0000A601A0E0B1E02C9130E011968C91119780
:107F100090E0982F8827822B932B1296FA010C0160
:107F200087BEE89511244E5F5F4FF1E0A038BF0790
:107F300051F7F601A7BEE89507B600FCFDCF97BE46
:107F4000E89526C08437B1F42ED02DD0F82E2BD052
:107F50003CD0F601EF2C8F010F5F1F4F84911BD097
:107F6000EA94F801C1F70894C11CD11CFA94CF0C13
:107F7000D11C0EC0853739F428D08EE10CD085E9AC
:107F80000AD08FE07ACF813511F488E018D01DD067
:107F900080E101D065CF982F8091C00085FFFCCF94
:107FA0009093C60008958091C00087FFFCCF809118
:107FB000C00084FD01C0A8958091C6000895E0E648
:107FC000F0E098E1908380830895EDDF803219F02E
:107FD00088E0F5DFFFCF84E1DECF1F93182FE3DFCA
:107FE0001150E9F7F2DF1F91089580E0E8DFEE27F6
:047FF000FF270994CA
:027FFE00040479
:0400000300007E007B
:00000001FF