:100000000C9434000C948D020C9473020C94A8018F
:100010000C940D020C9451000C9451000C9434017A
:100020000C941F010C9451000C9451000C945D0130
:100030000C9451000C9449010C947E010C947101B4
:100040000C94D5000C9451000C9451000C94510068
:100050000C9451000C9451000C9451000C945100DC
:100060000C9451000C94510011241FBECFEFD8E026
:10007000DEBFCDBF21E0A8E0B1E001C01D92A134F8
:10008000B207E1F711E0A0E0B1E0E2E9FBE002C075
:1000900005900D92A830B107D9F70E94F2020C9496
:1000A000C7050C94000087E480937C0080917A005F
:1000B000806480937A0080917A0086FDFCCF8091E5
:1000C00078002091790090E0922B0895E0EBF0E029
:1000D00080818F70808310926F002C9A2B985D9A8C
:1000E0005B980895809127018823C1F01092270121
:1000F0008091230190912401A0912501B0912601C6
:10010000813523EC920728F49093220180932101FA
:100110000FC010922201109221010AC0809120018B
:10012000833330F0109222011092210110922001AD
:10013000809121019091220108950F931F930091C6
:1001400028011091290120912A0130912B01A0E072
:10015000B0E0409128015091290160912A017091ED
:100160002B01401B510B620B730B84179507A607DD
:10017000B70778F71F910F910895809136019091FC
:100180003701843F914068F40E94720090933701D8
:1001900080933601289A0E94660082E390E00E94D4
:1001A0009D00289808950C944E051F920F920FB64B
:1001B0000F9211242F933F938F939F93AF93BF93ED
:1001C00080913D0190913E01A0913F01B09140018D
:1001D00030913C0123E0230F2D3720F40196A11D1F
:1001E000B11D05C026E8230F0296A11DB11D209365
:1001F0003C0180933D0190933E01A0933F01B09359
:1002000040018091380190913901A0913A01B0915B
:100210003B010196A11DB11D8093380190933901D6
:10022000A0933A01B0933B01BF91AF919F918F9101
:100230003F912F910F900FBE0F901F9018957894BB
:100240001F920F920FB60F9211248F932C988091CA
:100250003401811102C05B9801C02B988F910F90DF
:100260000FBE0F901F90189578941F920F920FB6A3
:100270000F9211248F932C9880913401811102C028
:100280005B9A01C02B9A8F910F900FBE0F901F9019
:10029000189578941F920F920FB60F9211248F9396
:1002A00080913401811102C05D9A01C02C9A8F9116
:1002B0000F900FBE0F901F90189578941F920F9279
:1002C0000FB60F9211248F9380913401811102C0D7
:1002D0005D9801C02C988F910F900FBE0F901F90CA
:1002E000189578941F920F920FB60F9211242C9AA2
:1002F0005D9A0F900FBE0F901F9018951F920F924E
:100300000FB60F9211248F939F93AF93BF93809159
:10031000280190912901A0912A01B0912B01019609
:10032000A11DB11D8093280190932901A0932A015A
:10033000B0932B01809120018F5F80932001BF91AA
:10034000AF919F918F910F900FBE0F901F901895B6
:100350001F920F920FB60F921124CF92DF92EF925D
:10036000FF922F933F934F935F936F937F938F935E
:100370009F93AF93BF932091280130912901409121
:100380002A0150912B0166B584E0689FB0011124C9
:100390006B01770FEE08FF08A8EEB3E00E9483051B
:1003A000DC01CB018C0D9D1DAE1DBF1D1C9B09C02A
:1003B00080931C0190931D01A0931E01B0931F0117
:1003C00019C0C0901C01D0901D01E0901E01F0905A
:1003D0001F018C199D09AE09BF09809318019093E4
:1003E0001901A0931A01B0931B0181E080931701BA
:1003F00010921601BF91AF919F918F917F916F9154
:100400005F914F913F912F91FF90EF90DF90CF90B0
:100410000F900FBE0F901F90189578941F920F9217
:100420000FB60F921124CF92DF92EF92FF922F938B
:100430003F934F935F936F937F938F939F93AF936C
:10044000BF93209128013091290140912A015091B8
:100450002B0166B584E0689FB00111246B01770F12
:10046000EE08FF08A8EEB3E00E948305DC01CB0193
:100470008C0D9D1DAE1DBF1D309B09C080931201C8
:1004800090931301A0931401B093150119C0C0906B
:100490001201D0901301E0901401F09015018C1915
:1004A0009D09AE09BF098093230190932401A09375
:1004B0002501B093260181E080932701109220014D
:1004C000BF91AF919F918F917F916F915F914F916C
:1004D0003F912F91FF90EF90DF90CF900F900FBE44
:1004E0000F901F9018951F920F920FB60F92112424
:1004F0008F93EF93FF93229A2A9886B58F5F88BDDA
:10050000EEE6F0E0808184608083FF91EF918F912F
:100510000F900FBE0F901F9018951F920F920FB65D
:100520000F921124CF92DF92EF92FF922F933F937D
:100530004F935F936F937F938F939F93AF93BF93EB
:10054000209128013091290140912A0150912B01DD
:1005500066B584E0689FB00111246B01770FEE0847
:10056000FF08A8EEB3E00E948305DC01CB018C0DEF
:100570009D1DAE1DBF1D4A9B09C080930E01909327
:100580000F01A0931001B093110119C0C0900E018A
:10059000D0900F01E0901001F09011018C199D098D
:1005A000AE09BF0980930A0190930B01A0930C013F
:1005B000B0930D0181E08093090110920801BF9171
:1005C000AF919F918F917F916F915F914F913F91EB
:1005D0002F91FF90EF90DF90CF900F900FBE0F9074
:1005E0001F901895789484B5826084BD84B581602D
:1005F00084BD85B5826085BD85B5816085BD8091EE
:100600006E00816080936E00109281008091810065
:10061000826080938100809181008160809381005D
:10062000809180008160809380008091B10084601F
:100630008093B1008091B00081608093B000809180
:100640007A00846080937A0080917A00826080933F
:100650007A0080917A00816080937A0080917A009C
:10066000806880937A001092C10014BC15BC10926F
:100670006E0085B5836085BD84B5826084BD89EFD9
:1006800087BD80916E00826080936E003898409A9A
:100690008091680082608093680080916C00816026
:1006A00080936C008AEF90E00E94D300282F30E006
:1006B000A0EDB7E00E94B805C12CD12C7601CA94F8
:1006C000A70196010E946405309331012093300107
:1006D0008FEF90E00E94D300282F30E0A0EDB7E02C
:1006E0000E94B805A70196010E946405309333016A
:1006F0002093320184E091E00E94D300282F30E063
:10070000A0EDB7E00E94B805A70196010E9464051C
:1007100030932D0120932C0189E091E00E94D300B9
:10072000282F30E0A0EDB7E00E94B805A7019601A0
:100730000E94640530932F0120932E01559A5D98F5
:10074000249A2C98539A5B98239A2B981092B00075
:100750001092B1008091B10084608093B1008091CB
:10076000B00083608093B0008091B0008068809377
:10077000B0008091B00080638093B0008EEF8093D2
:10078000B30080918400909185008F5F8093B200C8
:100790001092800010928100809181008860809387
:1007A0008100809180008160809380008091810031
:1007B00083608093810080916F00836080936F00DD
:1007C000209A0E9472009093370180933601289AF4
:1007D00088EE93E00E949D00289838EE432E33E087
:1007E000532E612C712C40EDC42E47E0D42EE12C09
:1007F000F12C52EC852E99249394A12CB12C60E21B
:10080000262E63E0362EC0EDD7E00E947200909352
:100810003701809336010E945300892B09F0B6C03E
:100820000E94660028980E94BD0003E010E0289A0C
:1008300084E690E00E949D00289884E690E00E9463
:100840009D000150110999F7309233012092320135
:10085000D0933101C093300130922F0120922E01AC
:10086000D0932D01C0932C0100E010E00E94720093
:1008700090933701809336012091300130913101FE
:10088000582F492F2817390710F4522F432F509310
:1008900030014093310120913201309133018217B0
:1008A000930708F4C90190933301809332010A3F02
:1008B000110514F4289A01C028988FE090E00E9456
:1008C0009D000F5F1F4F0E3521E0120779F6209132
:1008D000300130913101AFEFB0E00E94B8056115F1
:1008E00020ED720727E08207910534F4A7019601F5
:1008F0000E946405622F01C06FEF8AEF90E00E94B2
:1009000056052091320130913301AFEFB0E00E94E3
:10091000B805611520ED720727E08207910534F4D0
:10092000A70196010E946405622F01C06FEF8FEF4F
:1009300090E00E94560503E010E0289A84E690E0DB
:100940000E949D00289884E690E00E949D0001503E
:10095000110999F70E945300892BB9F4609128017D
:100960007091290180912A0190912B01A30192019C
:100970000E949605672B682B692B61F7289A82E302
:1009800090E00E949D002898E5CF2898209136019C
:1009900030913701809102019091030182179307F2
:1009A00020F4309303012093020180910001909183
:1009B00001012817390720F4309301012093000129
:1009C0002F3086E0380780F191E0909334018091D8
:1009D000B00080688093B0005D985B9880916F0054
:1009E000836080936F00C901A0E0B0E09C01AD017D
:1009F0002E50364041095109A1E0BFEF0E949105F8
:100A0000A50194010E946405DA01C90181509F4F3C
:100A1000AF4FBF4F282F30E03093890020938800DC
:100A200021E02093350130C02A3A85E0380740F5AF
:100A3000109234018091B00080638093B0002C98B4
:100A40002B9880916F00836080936F00C901A0E0B4
:100A5000B0E09C01AD01285E334041095109AFEF80
:100A6000B0E00E948305A50194010E94640530E076
:100A7000309389002093880092E09093350104C060
:100A80000E946600109235010E94BD0080E090E057
:100A9000892B09F4BACE0E940000B7CEF999FECF97
:100AA00092BD81BDF89A992780B50895262FF999AE
:100AB000FECF1FBA92BD81BD20BD0FB6F894FA9A41
:100AC000F99A0FBE01960895052E97FB1EF4009427
:100AD0000E947B0557FD07D00E94960507FC03D0B6
:100AE0004EF40C947B0550954095309521953F4FE1
:100AF0004F4F5F4F089590958095709561957F4F0A
:100B00008F4F9F4F08950E94B805A59F900DB49FE9
:100B1000900DA49F800D911D11240895B7FF0C9492
:100B200083050E948305821B930B0895A1E21A2E70
:100B3000AA1BBB1BFD010DC0AA1FBB1FEE1FFF1F81
:100B4000A217B307E407F50720F0A21BB30BE40BD1
:100B5000F50B661F771F881F991F1A9469F7609518
:100B60007095809590959B01AC01BD01CF010895D2
:100B7000A29FB001B39FC001A39F700D811D1124DE
:100B8000911DB29F700D811D1124911D0895F8943F
:020B9000FFCF95
:080B9200B0046C070100000033
:00000001FF
