:100000000C9434000C94B6030C949C030C94D10211
:100010000C9436030C9451000C9451000C945D0226
:100020000C9448020C9451000C9451000C948602DC
:100030000C9451000C9472020C94A7020C949A0236
:100040000C94FE010C9451000C9451000C9451003E
:100050000C9451000C9451000C9451000C945100DC
:100060000C9451000C94510011241FBECFEFD8E026
:10007000DEBFCDBF21E0ACE0B1E001C01D92A536EE
:10008000B207E1F711E0A0E0B1E0E6E6F1E102C07D
:1000900005900D92AC30B107D9F70E941B040C9467
:1000A000B1080C94000087E480937C0080917A0072
:1000B000806480937A0080917A0086FDFCCF8091E5
:1000C00078002091790090E0922B0895CF92DF92F2
:1000D000EF92FF9290914501911113C0409151010F
:1000E000509152016091530170915401409341012C
:1000F00050934201609343017093440191E09093C7
:10010000450140915101509152016091530170910C
:100110005401C0904101D0904201E0904301F09021
:1001200044014C195D096E097F094B305105610589
:100130007105F0F1C0900401D0900501E090060136
:10014000F0900701682F70E080E090E00E943F0788
:10015000A70196010E94A10660933D0170933E01A4
:1001600080933F019093400128EB3EE145E85DE339
:100170000E94CB079B01AC01C701B6010E94A206F9
:100180006093040170930501809306019093070129
:100190008091510190915201A0915301B09154016D
:1001A0008093410190934201A0934301B093440195
:1001B00010923C018091B00080638093B0002C9835
:1001C0002B9880916F00836080936F006091040191
:1001D0007091050180910601909107010E940E0720
:1001E0007093890060938800FF90EF90DF90CF902C
:1001F0000895CF92DF92EF92FF9290913401911186
:1002000013C040915101509152016091530170917E
:100210005401409330015093310160933201709347
:10022000330191E09093340140915101509152017A
:100230006091530170915401C0903001D090310110
:10024000E0903201F09033014C195D096E097F098D
:100250004B30510561057105F0F1C0900001D0905F
:100260000101E0900201F0900301682F70E080E04E
:1002700090E00E943F07A70196010E94A1066093AB
:100280002C0170932D0180932E0190932F0128EB68
:100290003EE145E85DE30E94CB079B01AC01C7014D
:1002A000B6010E94A2066093000170930101809341
:1002B0000201909303018091510190915201A0910C
:1002C0005301B09154018093300190933101A09378
:1002D0003201B093330181E080933C018091B00002
:1002E00080688093B0005D985B9880916F00836018
:1002F00080936F0060910001709101018091020173
:10030000909103010E940E0770938900609388000A
:10031000FF90EF90DF90CF900895E0EBF0E08081C8
:100320008F70808310926F002C9A2B985D9A5B9847
:10033000089580912B018823C1F010922B018091A8
:10034000270190912801A0912901B0912A018135BE
:1003500023EC920728F490932601809325010FC087
:1003600010922601109225010AC080912401833346
:1003700030F01092260110922501109224018091F4
:1003800025019091260108950F931F93009151012B
:10039000109152012091530130915401A0E0B0E03E
:1003A000409151015091520160915301709154015B
:1003B000401B510B620B730B84179507A607B707F9
:1003C00078F71F910F91089580915A0190915B01E8
:1003D000843F914078F4A8950E94990190935B0125
:1003E00080935A01289AA8950E948D0182E390E09B
:1003F0000E94C401289808950C9438081F920F9207
:100400000FB60F9211242F933F938F939F93AF9327
:10041000BF938091610190916201A0916301B091BD
:1004200064013091600123E0230F2D3720F4019601
:10043000A11DB11D05C026E8230F0296A11DB11D07
:10044000209360018093610190936201A093630106
:10045000B093640180915C0190915D01A0915E0177
:10046000B0915F010196A11DB11D80935C01909335
:100470005D01A0935E01B0935F01BF91AF919F9129
:100480008F913F912F910F900FBE0F901F90189555
:1004900078941F920F920FB60F9211248F932C987D
:1004A00080913C01811102C05B9801C02B988F9113
:1004B0000F900FBE0F901F90189578941F920F9277
:1004C0000FB60F9211248F932C9880913C018111CB
:1004D00002C05B9A01C02B9A8F910F900FBE0F90B4
:1004E0001F90189578941F920F920FB60F921124B7
:1004F0008F9380913C01811102C05D9A01C02C9ABA
:100500008F910F900FBE0F901F90189578941F92A7
:100510000F920FB60F9211248F9380913C0181119D
:1005200002C05D9801C02C988F910F900FBE0F9064
:100530001F90189578941F920F920FB60F92112466
:100540002C9A5D9A0F900FBE0F901F9018951F92D6
:100550000F920FB60F9211248F939F93AF93BF9377
:100560008091510190915201A0915301B091540199
:100570000196A11DB11D8093510190935201A0934A
:100580005301B0935401809124018F5F8093240123
:10059000BF91AF919F918F910F900FBE0F901F90C1
:1005A00018951F920F920FB60F921124CF92DF92DF
:1005B000EF92FF922F933F934F935F936F937F93AD
:1005C0008F939F93AF93BF9320915101309152012C
:1005D000409153015091540166B584E0689FB00189
:1005E00011246B01770FEE08FF08A8EEB3E00E941C
:1005F0006D08DC01CB018C0D9D1DAE1DBF1D1C9B2C
:1006000009C08093200190932101A0932201B0930F
:10061000230119C0C0902001D0902101E090220157
:10062000F09023018C199D09AE09BF0980931C012C
:1006300090931D01A0931E01B0931F0181E0809350
:100640001B0110921A01BF91AF919F918F917F91E1
:100650006F915F914F913F912F91FF90EF90DF90BD
:10066000CF900F900FBE0F901F90189578941F9207
:100670000F920FB60F921124CF92DF92EF92FF925A
:100680002F933F934F935F936F937F938F939F939A
:10069000AF93BF932091510130915201409153018A
:1006A0005091540166B584E0689FB00111246B013C
:1006B000770FEE08FF08A8EEB3E00E946D08DC019A
:1006C000CB018C0D9D1DAE1DBF1D309B09C08093BD
:1006D000160190931701A0931801B093190119C046
:1006E000C0901601D0901701E0901801F090190108
:1006F0008C199D09AE09BF098093270190932801A9
:10070000A0932901B0932A0181E080932B011092DC
:100710002401BF91AF919F918F917F916F915F91D4
:100720004F913F912F91FF90EF90DF90CF900F90DE
:100730000FBE0F901F9018951F920F920FB60F9239
:1007400011248F93EF93FF93229A2A9886B58F5F97
:1007500088BDEEE6F0E0808184608083FF91EF91B8
:100760008F910F900FBE0F901F9018951F920F92B0
:100770000FB60F921124CF92DF92EF92FF922F9338
:100780003F934F935F936F937F938F939F93AF9319
:10079000BF932091510130915201409153015091EA
:1007A000540166B584E0689FB00111246B01770F96
:1007B000EE08FF08A8EEB3E00E946D08DC01CB0153
:1007C0008C0D9D1DAE1DBF1D4A9B09C0809312015B
:1007D00090931301A0931401B093150119C0C09018
:1007E0001201D0901301E0901401F09015018C19C2
:1007F0009D09AE09BF0980930E0190930F01A0934C
:100800001001B093110181E080930D0110920C0151
:10081000BF91AF919F918F917F916F915F914F9118
:100820003F912F91FF90EF90DF90CF900F900FBEF0
:100830000F901F901895789484B5826084BD84B51C
:10084000816084BD85B5826085BD85B5816085BDCB
:1008500080916E00816080936E0010928100809183
:10086000810082608093810080918100816080930B
:100870008100809180008160809380008091B10030
:1008800084608093B1008091B00081608093B0005B
:1008900080917A00846080937A0080917A008260EF
:1008A00080937A0080917A00816080937A008091B1
:1008B0007A00806880937A001092C10014BC15BC45
:1008C00010926E0085B5836085BD84B5826084BD5D
:1008D00089EF87BD80916E00826080936E003898AA
:1008E000409A8091680082608093680080916C00DB
:1008F000816080936C008AEF90E00E94FC01282FB9
:1009000030E0A0EDB7E00E94A208C12CD12C760106
:10091000CA94A70196010E944E0830935701209374
:1009200056018FEF90E00E94FC01282F30E0A0EDEF
:10093000B7E00E94A208A70196010E944E083093DA
:1009400059012093580184E091E00E94FC01282F76
:1009500030E0A0EDB7E00E94A208A70196010E9436
:100960004E0830934E0120934D0189E091E00E94A2
:10097000FC01282F30E0A0EDB7E00E94A208A701FB
:1009800096010E944E083093500120934F01559AD2
:100990005D98249A2C98539A5B98239A2B981092DE
:1009A000B0001092B1008091B10084608093B100DA
:1009B0008091B00083608093B0008EEF8093B3008D
:1009C00080918400909185008F5F8093B200109297
:1009D0008000109281008091810088608093810066
:1009E000809180008160809380008091810083608D
:1009F00080938100209A0E94990190935B018093DB
:100A00005A019FE088E10FB6F894A89580936000A2
:100A10000FBE90936000209A289A88EE93E00E947F
:100A2000C40138EE832E33E0932EA12CB12C40ED7F
:100A3000C42E47E0D42EE12CF12CA8950E949901F8
:100A400090935B0180935A010E945300892B09F017
:100A5000BEC00E948D01A89528980E94E401C3E0C1
:100A6000D0E0289A84E690E00E94C401289884E6A9
:100A700090E00E94C4012197A1F780E293E0909357
:100A800059018093580180ED97E09093570180932E
:100A9000560180E293E09093500180934F0180EDE6
:100AA00097E090934E0180934D01C0E0D0E0A8956F
:100AB0000E94990190935B0180935A012091560105
:100AC00030915701582F492F2817390710F4522F0A
:100AD000432F509356014093570120915801309174
:100AE00059018217930708F4C90190935901809323
:100AF0005801CA3FD10514F4289A01C028988FE004
:100B000090E00E94C4012196CE3591E0D90779F694
:100B10002091560130915701AFEFB0E00E94A2083A
:100B2000611520ED720727E08207910534F4A701D3
:100B300096010E944E08622F01C06FEF8AEF90E08D
:100B40000E9440082091580130915901AFEFB0E068
:100B50000E94A208611520ED720727E08207910527
:100B600034F4A70196010E944E08622F01C06FEF76
:100B70008FEF90E00E944008C3E0D0E0289A84E61E
:100B800090E00E94C401289884E690E00E94C4018D
:100B90002197A1F70E945300892BC1F4A895609179
:100BA0005101709152018091530190915401A5011E
:100BB00094010E948008672B682B692B59F7289AAB
:100BC00082E390E00E94C4012898E4CF28980E9414
:100BD000E4010E949901EC0190935B0180935A011A
:100BE000A89520905801309059016090560170905E
:100BF00057018301020D131D980136952795890130
:100C00000E5C1F4F0C171D0708F045C08091550161
:100C10008230F1F4409051015090520160905301A4
:100C2000709054018FEF0E94660080915101909165
:100C30005201A0915301B091540184199509A6095C
:100C4000B70987399105A105B10560F30E948D01AF
:100C50002801612C712CCE01A0E0B0E09C01AD0117
:100C60002419350946095709A1E0BFEF0E947B0806
:100C7000810120E030E0A9019801241935094609D5
:100C800057090E944E088FEF820F0E94F90081E001
:100C9000809355014EC0890102531109C017D10735
:100CA00008F043C0809155018130F1F4209051014A
:100CB0003090520140905301509054018FEF0E94A8
:100CC000F9008091510190915201A0915301B0918E
:100CD000540182199309A409B50987399105A10521
:100CE000B10560F30E948D012301612C712CCE01AE
:100CF000A0E0B0E09C01AD0124193509460957096F
:100D0000AFEFB0E00E946D0820E030E0A90198014B
:100D100024193509460957090E944E08822F0E945E
:100D2000660092E09093550104C00E948D011092DC
:100D3000550180E090E0892B09F47FCE0E940000ED
:100D40007CCE5058BB27AA270E94B9060C94910765
:100D50000E94830738F00E948A0720F039F49F3FF1
:100D600019F426F40C9480070EF4E095E7FB0C943C
:100D70007A07E92F0E94A20758F3BA176207730790
:100D80008407950720F079F4A6F50C94C4070EF4B7
:100D9000E0950B2EBA2FA02D0B01B90190010C018B
:100DA000CA01A0011124FF27591B99F0593F50F4A3
:100DB000503E68F11A16F040A22F232F342F4427FB
:100DC000585FF3CF469537952795A795F0405395F3
:100DD000C9F77EF41F16BA0B620B730B840BBAF0C3
:100DE0009150A1F0FF0FBB1F661F771F881FC2F72E
:100DF0000EC0BA0F621F731F841F48F48795779542
:100E00006795B795F7959E3F08F0B0CF9395880FFB
:100E100008F09927EE0F9795879508950E94AA07E5
:100E200088F09F5798F0B92F9927B751B0F0E1F0AB
:100E3000660F771F881F991F1AF0BA95C9F714C05B
:100E4000B13091F00E94C407B1E008950C94C4073A
:100E5000672F782F8827B85F39F0B93FCCF3869594
:100E600077956795B395D9F73EF4909580957095F1
:100E700061957F4F8F4F9F4F0895E89409C097FB6E
:100E80003EF490958095709561957F4F8F4F9F4F61
:100E90009923A9F0F92F96E9BB279395F6958795A5
:100EA00077956795B795F111F8CFFAF4BB0F11F468
:100EB00060FF1BC06F5F7F4F8F4F9F4F16C088230F
:100EC00011F096E911C0772321F09EE8872F762F45
:100ED00005C0662371F096E8862F70E060E02AF086
:100EE0009A95660F771F881FDAF7880F9695879572
:100EF00097F9089597F99F6780E870E060E008959A
:100F00009FEF80EC089500240A9416161706180621
:100F10000906089500240A941216130614060506FD
:100F20000895092E0394000C11F4882352F0BB0F8E
:100F300040F4BF2B11F460FF04C06F5F7F4F8F4FF1
:100F40009F4F089557FD9058440F551F59F05F3F2C
:100F500071F04795880F97FB991F61F09F3F79F0DB
:100F600087950895121613061406551FF2CF46955D
:100F7000F1DF08C0161617061806991FF1CF8695DF
:100F80007105610508940895E894BB2766277727C3
:100F9000CB0197F908950E94DE070C9491070E94F7
:100FA000830738F00E948A0720F0952311F00C94F3
:100FB0007A070C94800711240C94C5070E94A2079D
:100FC00070F3959FC1F3950F50E0551F629FF0019C
:100FD000729FBB27F00DB11D639FAA27F00DB11DB5
:100FE000AA1F649F6627B00DA11D661F829F22273E
:100FF000B00DA11D621F739FB00DA11D621F839FC5
:10100000A00D611D221F749F3327A00D611D231F9A
:10101000849F600D211D822F762F6A2F11249F57E8
:1010200050409AF0F1F088234AF0EE0FFF1FBB1FEB
:10103000661F771F881F91505040A9F79E3F5105AA
:1010400080F00C947A070C94C5075F3FE4F3983E58
:10105000D4F3869577956795B795F795E7959F5F54
:10106000C1F7FE2B880F911D9695879597F90895E6
:10107000F999FECF92BD81BDF89A992780B5089560
:10108000262FF999FECF1FBA92BD81BD20BD0FB6A4
:10109000F894FA9AF99A0FBE01960895052E97FBD7
:1010A0001EF400940E94650857FD07D00E94800836
:1010B00007FC03D04EF40C9465085095409530958C
:1010C00021953F4F4F4F5F4F0895909580957095B4
:1010D00061957F4F8F4F9F4F08950E94A208A59F53
:1010E000900DB49F900DA49F800D911D1124089523
:1010F000B7FF0C946D080E946D08821B930B089536
:10110000A1E21A2EAA1BBB1BFD010DC0AA1FBB1F0B
:10111000EE1FFF1FA217B307E407F50720F0A21B7D
:10112000B30BE40BF50B661F771F881F991F1A94EA
:1011300069F760957095809590959B01AC01BD0114
:10114000CF010895A29FB001B39FC001A39F700D6E
:10115000811D1124911DB29F700D811D1124911DBF
:061160000895F894FFCF92
:0C11660000007F4300007F4301000000F8
:107800000C94343C0C94513C0C94513C0C94513CE1
:107810000C94513C0C94513C0C94513C0C94513CB4
:107820000C94513C0C94513C0C94513C0C94513CA4
:107830000C94513C0C94513C0C94513C0C94513C94
:107840000C94513C0C94513C0C94513C0C94513C84
:107850000C94513C0C94513C0C94513C0C94513C74
:107860000C94513C0C94513C11241FBECFEFD8E036
:10787000DEBFCDBF11E0A0E0B1E0ECE9FFE702C060
:1078800005900D92A230B107D9F712E0A2E0B1E065
:1078900001C01D92AD30B107E1F70E942D3D0C945F
:1078A000CC3F0C94003C982F959595959595959582
:1078B000905D8F708A307CF0282F295A8091C0000B
:1078C00085FFFCCF9093C6008091C00085FFFCCF60
:1078D0002093C6000895282F205DF0CF982F809127
:1078E000C00085FFFCCF9093C6000895EF92FF92F1
:1078F0000F931F93EE24FF2487018091C00087FD22
:1079000017C00894E11CF11C011D111D81E4E8164B
:1079100082E4F8068FE0080780E0180770F3E09132
:107920000401F091050109958091C00087FFE9CF1E
:107930008091C6001F910F91FF90EF9008950E94D3
:10794000763C982F8091C00085FFFCCF9093C600B5
:1079500091362CF490330CF09053892F089597555D
:10796000892F08951F930E949F3C182F0E949F3CCF
:107970001295107F810F1F9108951F93182F882350
:1079800021F00E94763C1150E1F71F9108951F935A
:10799000182F0E94763C803249F0809103018F5F5E
:1079A000809303018530C1F01F9108958091C0003C
:1079B00085FFFCCF84E18093C6008091C00085FFE5
:1079C000FCCF1093C6008091C00085FFFCCF80E102
:1079D0008093C6001F910895E0910401F091050184
:1079E00009951F9108950E94763C803241F0809164
:1079F00003018F5F80930301853081F008958091AA
:107A0000C00085FFFCCF84E18093C6008091C00058
:107A100085FFFCCF80E18093C6000895E0910401CA
:107A2000F09105010995089540E951E08823A1F0FE
:107A30002D9A28EE33E0FA013197F1F721503040CA
:107A4000D1F72D9828EE33E0FA013197F1F7215064
:107A50003040D1F7815061F708953F924F925F9285
:107A60006F927F928F929F92AF92BF92CF92DF924E
:107A7000EF92FF920F931F93CF93DF93000080E16B
:107A80008093C4001092C50088E18093C10086E015
:107A90008093C2005098589A259A81E00E94143D24
:107AA00024E1F22E9EE1E92E85E9D82E0FE0C02ECA
:107AB00010E1B12EAA24A394B1E49B2EA6E58A2E50
:107AC000F2E57F2EE0E26E2E79E4572E63E5462E36
:107AD00050E5352E0E94763C8033B1F18133B9F107
:107AE000803409F46FC0813409F476C0823409F41B
:107AF00085C0853409F488C0803531F1823521F1A3
:107B0000813511F1853509F485C0863509F48DC0BC
:107B1000843609F496C0843709F403C1853709F423
:107B200072C1863709F466C0809103018F5F80932C
:107B30000301853079F6E0910401F0910501099582
:107B40000E94763C803351F60E94F33CC3CF0E94E2
:107B5000763C803249F78091C00085FFFCCFF092DF
:107B6000C6008091C00085FFFCCF9092C600809136
:107B7000C00085FFFCCF8092C6008091C00085FFC9
:107B8000FCCF7092C6008091C00085FFFCCF609250
:107B9000C6008091C00085FFFCCF5092C600809146
:107BA000C00085FFFCCF4092C6008091C00085FFD9
:107BB000FCCF3092C6008091C00085FFFCCFB09210
:107BC000C60088CF0E94763C863808F4BDCF0E945C
:107BD000763C0E94F33C7ECF0E94763C803809F4CC
:107BE0009CC0813809F40BC1823809F43CC1883942
:107BF00009F48FC080E00E94C73C6CCF84E10E94F2
:107C0000BD3C0E94F33C66CF85E00E94BD3C0E94D3
:107C1000F33C60CF0E94763C809306010E94763C44
:107C2000809307010E94F33C55CF0E94763C80333D
:107C300009F41DC183E00E94BD3C80E00E94C73C66
:107C400049CF0E94763C809309020E94763C809343
:107C5000080280910C028E7F80930C020E94763C79
:107C6000853409F415C18091080290910902892B8D
:107C700089F000E010E00E94763CF801E85FFE4FDA
:107C800080830F5F1F4F80910802909109020817AF
:107C9000190788F30E94763C803209F045CF809125
:107CA0000C0280FF01C16091060170910701660F0F
:107CB000771F7093070160930601A0910802B091AD
:107CC00009021097C9F0E8E0F1E09B01AD014E0F09
:107CD0005F1FF999FECF32BD21BD819180BDFA9A17
:107CE000F99A2F5F3F4FE417F50799F76A0F7B1F4B
:107CF00070930701609306018091C00085FFFCCF5F
:107D0000F092C6008091C00085FFFCCFB092C60003
:107D1000E1CE83E00E94C73CDDCE82E00E94C73CFA
:107D2000D9CE0E94763C809309020E94763C8093D3
:107D300008028091060190910701880F991F909386
:107D40000701809306010E94763C853409F4A6C0A1
:107D500080910C028E7F80930C020E94763C8032D0
:107D600009F0B8CE8091C00085FFFCCFF092C6002C
:107D7000609108027091090261157105B9F140E046
:107D800050E080910C02A82FA170B82FB27011C0E2
:107D9000BB2309F45CC0E0910601F0910701319624
:107DA000F0930701E09306014F5F5F4F46175707B7
:107DB000E8F4AA2369F3F999FECF209106013091E6
:107DC000070132BD21BDF89A90B58091C00085FFB2
:107DD000FCCF9093C6002F5F3F4F30930701209355
:107DE00006014F5F5F4F4617570718F38091C00099
:107DF00085FDE5CE8091C00085FFF8CFE0CE81E023
:107E00000E94C73C67CE0E94763C803209F08CCE3F
:107E10008091C00085FFFCCFF092C6008091C00029
:107E200085FFFCCFE092C6008091C00085FFFCCFAB
:107E3000D092C6008091C00085FFFCCFC092C600E2
:107E40008091C00085FFFCCFB092C60043CEE09188
:107E50000601F091070194918091C00085FFFCCF4D
:107E60009093C6009CCF80E10E94C73C33CE0E9415
:107E7000763C0E94763C182F0E94763C112309F430
:107E800083C0113009F484C08FE00E94C73C22CE29
:107E900080910C02816080930C02E5CE80910C02EF
:107EA000816080930C0259CF809107018823880F4D
:107EB000880B8A2180930B02809106019091070123
:107EC000880F991F90930701809306018091080203
:107ED00080FF09C080910802909109020196909359
:107EE000090280930802F894F999FECF1127E091D6
:107EF0000601F0910701C8E0D1E08091080290915D
:107F00000902103091F40091570001700130D9F34B
:107F100003E000935700E89500915700017001308D
:107F2000D9F301E100935700E89509901990009169
:107F3000570001700130D9F301E000935700E89534
:107F40001395103498F011270091570001700130FB
:107F5000D9F305E000935700E895009157000170B0
:107F60000130D9F301E100935700E895329602976A
:107F700009F0C7CF103011F00296E5CF112480919F
:107F8000C00085FFB9CEBCCE8EE10E94C73CA2CD19
:0C7F900085E90E94C73C9ECDF894FFCF0D
:027F9C00800063
:040000030000780081
:00000001FF